:100000002C06002001090000790900008109000088
:10001000890900008909000089090000000000002A
:10002000000000000000000000000000890900003E
:10003000890900000000000089090000890900000A
:100040008909000089090000890900008909000068
:100050008909000089090000890900008909000058
:100060008909000089090000890900008909000048
:100070008909000089090000890900008909000038
:100080008909000089090000890900008909000028
:100090008909000089090000890900008909000018
:1000A0008909000089090000890900008909000008
:1000B00089090000890900008909000089090000F8
:1000C00089090000890900008909000089090000E8
:1000D00089090000890900008909000089090000D8
:1000E00089090000000000000000000089090000EC
:1000F00089090000890900008909000089090000B8
:1001000089090000890900008909000089090000A7
:1001100000000000000000008909000089090000BB
:100120008909000089090000890900008909000087
:100130008909000089090000890900008909000077
:1001400000000000000000000000000000000000AF
:100150008909000089090000890900008909000057
:10016000000000000000000000000000000000008F
:10017000000000000000000000000000000000007F
:10018000000000000000000000000000000000006F
:10019000000000000000000000000000000000005F
:1001A000000000000000000000000000000000004F
:1001B00089090000890900008909000089090000F7
:1001C00089090000890900008909000089090000E7
:1001D00089090000890900008909000089090000D7
:1001E0008909000089090000890900000000000059
:1001F0000000000089090000890900008909000049
:1002000089090000890900000000000000000000CA
:100210008909000089090000890900008909000096
:100220008909000089090000890900008909000086
:100230008909000089090000890900008909000076
:100240008909000089090000890900008909000066
:100250008909000089090000890900008909000056
:1002600089090000890900008909000080B483B071
:1002700000AF4EF20813C4F20F034EF20812C4F29C
:100280000F02126842F002021A604EF20813C4F222
:100290000F031B687B604FF4A843C4F200034FF4C4
:1002A000A842C4F20002126842F0FF021A6045F24E
:1002B0002043C4F2000345F22042C4F20002126857
:1002C00022F0FF021A6045F21C53C4F2000345F20B
:1002D0001C52C4F20002126842F0FF021A600C378E
:1002E000BD465DF8047B704780B588B000AFFFF76E
:1002F000BDFF4FF4A860C0F2402000F035FC00F0D4
:10030000C7FC03467B6000F069FD0346FB73FB7B83
:1003100003F00303FB73FB7B032B00F23B8101A281
:1003200052F823F03503000097030000F9030000A2
:10033000C704000000F038FA0120012100F08AF91A
:1003400040F62460C0F2000000F01AFA0023BB60FF
:1003500002E0BB680133BB60BA6844F63F33C0F2C9
:100360004C039A42F5D90220012100F073F940F6BE
:100370003060C0F2000000F003FA0023BB6002E02E
:10038000BB680133BB60BA6844F63F33C0F24C032C
:100390009A42F5D9FFE000F007FA0220012100F0AF
:1003A00059F940F63060C0F2000000F0E9F900238E
:1003B000BB6002E0BB680133BB60BA6844F63F3300
:1003C000C0F24C039A42F5D90120012100F042F914
:1003D00040F62460C0F2000000F0D2F90023BB60B8
:1003E00002E0BB680133BB60BA6844F63F33C0F239
:1003F0004C039A42F5D9CEE000F0D6F90220102144
:1004000000F028F940F63060C0F2000000F0B8F9C2
:100410000023BB6002E0BB680133BB60BA6844F6EE
:100420003F33C0F24C039A42F5D90023FB610BE045
:10043000182000F047F94FF49050C0F27A0000F015
:100440008FFBFB690133FB61FB691C2BF0DD00F0C6
:100450002FF94FF49050C0F27A0000F081FB022097
:10046000102100F0F7F840F63060C0F2000000F014
:1004700087F90120102100F0EDF840F62460C0F269
:10048000000000F07DF90023BB6002E0BB6801338F
:10049000BB60BA6844F63F33C0F24C039A42F5D9C8
:1004A0000023BB610BE0182000F00CF94FF49050D2
:1004B000C0F27A0000F054FBBB690133BB61BB6939
:1004C0001C2BF0DD67E000F06FF90120012100F046
:1004D000C1F840F63060C0F2000000F051F900238E
:1004E000BB6002E0BB680133BB60BA6844F63F33CF
:1004F000C0F24C039A42F5D900237B610BE01E2029
:1005000000F0E0F84FF49050C0F27A0000F028FBC1
:100510007B6901337B617B691C2BF0DD00F0C8F83F
:100520004FF49050C0F27A0000F01AFB0120012134
:1005300000F090F840F63060C0F2000000F020F9C2
:100540000220012100F086F840F62460C0F200008D
:1005500000F016F90023BB6002E0BB680133BB600A
:10056000BA6844F63F33C0F24C039A42F5D90023EF
:100570003B610BE01E2000F0A5F84FF49050C0F254
:100580007A0000F0EDFA3B6901333B613B691C2BBB
:10059000F0DD00E000BFB6E680B582B000AF0346F4
:1005A000FB71FB7923F00F03DBB24FF4A040C4F2E0
:1005B0000000F0211A4600F0A9FA4FF4A040C4F25E
:1005C00000000121012200F0A1FA4FF4A040C4F282
:1005D00000000221022200F099FA0A2000F0C0FA7D
:1005E0004FF4A040C4F200000221002200F08EFA75
:1005F0004CF2503000F0B4FAFB791B01DBB24FF43F
:10060000A040C4F20000F0211A4600F07FFA4FF437
:10061000A040C4F200000121012200F077FA4FF45B
:10062000A040C4F200000221022200F06FFA0A206A
:1006300000F096FA4FF4A040C4F20000022100221C
:1006400000F064FA4CF2503000F08AFA0837BD46E8
:1006500080BD00BF80B582B000AF02460B46FA7184
:10066000BB7197F90730012B0FD197F906305A1E4D
:10067000D3171B0F1A4402F00F02D31ADBB2803BD0
:10068000DBB2184600F01EF80EE097F906305A1E4D
:10069000D3171B0F1A4402F00F02D31ADBB2403BF0
:1006A000DBB2184600F00EF80837BD4680BD00BF2B
:1006B00080B500AF012000F005F80A2000F050FAE4
:1006C00080BD00BF80B582B000AF0346FB71FB79EF
:1006D00023F00F03DBB24FF4A040C4F20000F0217E
:1006E0001A4600F013FA4FF4A040C4F200000121B2
:1006F000002200F00BFA4FF4A040C4F200000221E7
:10070000022200F003FA4CF2503000F029FA4FF4C4
:10071000A040C4F200000221002200F0F7F94CF2E0
:10072000503000F01DFAFB791B01DBB24FF4A04002
:10073000C4F20000F0211A4600F0E8F94FF4A0409E
:10074000C4F200000121002200F0E0F94FF4A040C3
:10075000C4F200000221022200F0D8F90A2000F0C1
:10076000FFF94FF4A040C4F200000221002200F083
:10077000CDF94CF2503000F0F3F90837BD4680BD9A
:1007800080B582B000AF786007E07B685A1C7A6061
:100790001B78DBB21846FFF7FFFE7B681B78002B47
:1007A000F3D10837BD4680BD80B500AF40F60100EB
:1007B000CFF2000000F0BCF94FF4A040C4F20000FA
:1007C000FF2100F0A6F94CF2503000F0C9F94FF4C7
:1007D000A040C4F200000121002200F097F94FF47C
:1007E000A040C4F20000F021302200F08FF94FF455
:1007F000A040C4F200000221022200F087F90A2082
:1008000000F0AEF94FF4A040C4F200000221002233
:1008100000F07CF94CF2503000F0A2F94FF4A04007
:10082000C4F20000F021302200F070F94FF4A04033
:10083000C4F200000221022200F068F90A2000F050
:100840008FF94FF4A040C4F200000221002200F012
:100850005DF94CF2503000F083F94FF4A040C4F23F
:100860000000F021302200F051F94FF4A040C4F212
:1008700000000221022200F049F90A2000F070F97C
:100880004FF4A040C4F200000221002200F03EF923
:100890004CF2503000F064F94FF4A040C4F2000074
:1008A000F021202200F032F94FF4A040C4F2000001
:1008B0000221022200F02AF90A2000F051F94FF437
:1008C000A040C4F200000221002200F01FF94CF207
:1008D000503000F045F92820FFF7F4FEC020FFF764
:1008E000F1FE0620FFF7EEFE8020FFF7EBFE28204A
:1008F000FFF7E8FE0F20FFF7E5FEFFF7D9FE80BD0A
:1009000080B582B000AF40F6B063C0F200037B60F8
:1009100040F20003C2F200033B6007E03B681A1D8F
:100920003A607A68111D796012681A603A6840F27C
:100930002C43C2F200039A42F0D30D480D494FF008
:1009400000028842B8BF40F8042BFADB4EF6885309
:10095000CEF200034EF68852CEF20002126842F444
:1009600070021A60FFF7C0FC0837BD4680BD00006A
:100970002C0400202C06002080B400AFFEE700BF4E
:1009800080B400AFFEE700BF80B400AFFEE700BF59
:10099000D0F8003412F0010F10B500F5806414BFD8
:1009A0000B438B43236012F0020FD0F8202400F594
:1009B000846314BF114322EA0101196010BDF0B530
:1009C000560906F00306002451FA04F515F0010F4C
:1009D00011D0D0F8C47F65004FF0030C0CFA05FC71
:1009E00027EA0C07C0F8C47FD0F8C47F16FA05F5D3
:1009F0003D43C0F8C45F0134082CE5D1D0F8004570
:100A000012F0010F00F5A06514BF0C438C432C605D
:100A1000D0F8045500F5A06412F0020F04F10404AC
:100A200014BF0D438D432560D0F8084512F0040F24
:100A300000F5A16514BF0C438C432C60D0F8184519
:100A400012F0080F00F5A36514BF0C438C432C6013
:100A5000D0F83C4512F0100F00F5A66202F10C022E
:100A600014BF0C438C431460D0F80C4500F5A06211
:100A700013F0010F02F10C0214BF0C438C431460FD
:100A8000D0F8102513F0020F00F5A26414BF0A433A
:100A90008A432260D0F8144500F5A26213F0040FD7
:100AA00002F1040214BF0C438C431460D0F81C45BF
:100AB00000F5A26213F0080F02F10C0214BF0C4300
:100AC0008C431460D0F8444500F5A86213F4007F0D
:100AD00002F1040214BF0C438C431460D0F840258B
:100AE00013F4407F00F5A86414BF0A438A432260D0
:100AF00000F5A56223B9D0F8283543EA010103E0E7
:100B0000D0F8283523EA01011160F0BD40F821201A
:100B1000704770B50122082305460C46FFF74FFFCA
:100B2000284621460122BDE87040FFF731BF000092
:100B30000A4B00F47F4200F0FF0003EB1223800019
:100B400003F0704240F0007023F07F43104323F421
:100B5000700340EA431301221A60704700E60F4019
:100B60000138FDD1704700004149F0B5414E0D6894
:100B7000346845F4006525F4800344F4006415F0FE
:100B8000010F0B60346016D010F0010F13D160F02C
:100B900001021340384A4FF4807515600B604FF422
:100BA000002201E0013A62D03449096811F4807FE3
:100BB000F8D0002A5BD000F4FE6223F4FE633049D3
:100BC0002D4E134324F0004200EA010122F070028E
:100BD00041EA020200F0080142EAC102244C254920
:100BE000236000F400550A6023F4005322F40052FD
:100BF0002B4340272A4337604EBF0A6023600A60B8
:100C0000204948BF236023F0F86300EA010123F084
:100C100001030B4322F0FC5200F0FC5110F0804F16
:100C200042EA010208D0184922F4800200EA0101D8
:100C300043F480030A4301E022F0804210F4006F85
:100C40000CD14FF400411148006810F0010F01D1A0
:100C50000139F8D123F4006322F4006204490B60E7
:100C6000044B10201A60BDE8F040FFF779BFF0BDDB
:100C700060E00F4070E00F4058E00F4050E00F4040
:100C8000300000800100C0070000404068E10F40D4
:100C9000464B19681A69002AB4BF02F0700301F0CC
:100CA0003003202B30B518D003D84BB1102B7BD19B
:100CB00004E0302B0BD0702B76D10BE03C4B0DE0D9
:100CC00001F4F86080093B4B53F8203006E047F20E
:100CD000305303E04FF4004300E0374B002A02DAC0
:100CE00012F4006F01E011F4006F38D13348056849
:100CF000043041F48001006800F01F0400F4F85053
:100D00000134000A6400013060432D4C05EA0404FC
:100D1000B3FBF0F3A40A5C43A805800DA40A00FB12
:100D200003432848006800F47040B0F5804F10D0AD
:100D300006D8B0F5005F15D0B0F5405F0FD106E0E2
:100D4000B0F5E04F07D0B0F5104F08D105E01E48D0
:100D500009E01E4807E01E4805E01E4803E04FF08A
:100D6000FF3000E01C4811F4800F19D0002A11DA7E
:100D700012F0804F07D012F4006F04D102F0FE523F
:100D80005B00920D02E002F0FC52D20D0132B3FB87
:100D9000F2F305E001F0F061C90D0131B3FBF1F3AD
:100DA000834238BF184630BD002030BD60E00F40A0
:100DB0000024F400400E000000093D0060E10F40F7
:100DC00000FC0F0010E00F4080F0FA02005A6202AF
:100DD00040787D01002D310100B4C40410B440F20C
:100DE0002843C2F200034FF22D401968D1F8A82021
:100DF000D1F8AC40C5F6510047F62D7300FB02F068
:100E0000C4F6954303FB0404A2FB032323440132ED
:100E100043F10003C1E92A2323F000405DF8044BAD
:100E2000704700BF4B6F6361656C6920556E690048
:100E3000486172756E2059494C44495A00000000BF
:100E400040420F0000201C0080841E00008025000E
:100E5000999E36000040380000093D0000803E00A9
:100E600000004B00404B4C0000204E00808D5B008A
:100E700000C05D000080700000127A0000007D005C
:100E800080969800001BB7000080BB00C0E8CE0031
:100E9000647ADA000024F4000000FA0080A812014D
:100EA000002D310100366E0140787D0143000000C5
:100EB00000000000EC02002054030020BC030020CE
:100EC0000000000000000000000000000000000022
:100ED0000000000000000000000000000000000012
:100EE00000000000AC0E0000000000000000000048
:100EF00000000000000000000000000000000000F2
:100F000000000000000000000000000000000000E1
:100F100000000000000000000000000000000000D1
:100F200000000000000000000000000000000000C1
:100F300000000000000000000000000000000000B1
:100F400000000000000000000000000000000000A1
:100F50000000000000000000010000000000000090
:100F60000E33CDAB34126DE6ECDE05000B00000055
:100F70000000000000000000000000000000000071
:100F80000000000000000000000000000000000061
:100F90000000000000000000000000000000000051
:100FA0000000000000000000000000000000000041
:0C12D000000000000000000000000020F2
:00000001FF
